{
  "contractName": "AinToken",
  "abi": [
    {
      "constant": true,
      "inputs": [],
      "name": "name",
      "outputs": [
        {
          "name": "",
          "type": "string"
        }
      ],
      "payable": false,
      "stateMutability": "view",
      "type": "function"
    },
    {
      "constant": false,
      "inputs": [],
      "name": "burnTokens",
      "outputs": [],
      "payable": false,
      "stateMutability": "nonpayable",
      "type": "function"
    },
    {
      "constant": false,
      "inputs": [
        {
          "name": "_spender",
          "type": "address"
        },
        {
          "name": "_amount",
          "type": "uint256"
        }
      ],
      "name": "approve",
      "outputs": [
        {
          "name": "success",
          "type": "bool"
        }
      ],
      "payable": false,
      "stateMutability": "nonpayable",
      "type": "function"
    },
    {
      "constant": true,
      "inputs": [],
      "name": "totalSupply",
      "outputs": [
        {
          "name": "",
          "type": "uint256"
        }
      ],
      "payable": false,
      "stateMutability": "view",
      "type": "function"
    },
    {
      "constant": false,
      "inputs": [
        {
          "name": "_from",
          "type": "address"
        },
        {
          "name": "_to",
          "type": "address"
        },
        {
          "name": "_amount",
          "type": "uint256"
        }
      ],
      "name": "transferFrom",
      "outputs": [
        {
          "name": "success",
          "type": "bool"
        }
      ],
      "payable": false,
      "stateMutability": "nonpayable",
      "type": "function"
    },
    {
      "constant": true,
      "inputs": [],
      "name": "decimals",
      "outputs": [
        {
          "name": "",
          "type": "uint8"
        }
      ],
      "payable": false,
      "stateMutability": "view",
      "type": "function"
    },
    {
      "constant": true,
      "inputs": [],
      "name": "crowdsaleContract",
      "outputs": [
        {
          "name": "",
          "type": "address"
        }
      ],
      "payable": false,
      "stateMutability": "view",
      "type": "function"
    },
    {
      "constant": false,
      "inputs": [
        {
          "name": "_address",
          "type": "address"
        }
      ],
      "name": "setCrowdsaleContract",
      "outputs": [],
      "payable": false,
      "stateMutability": "nonpayable",
      "type": "function"
    },
    {
      "constant": true,
      "inputs": [
        {
          "name": "_address",
          "type": "address"
        }
      ],
      "name": "balanceOf",
      "outputs": [
        {
          "name": "balance",
          "type": "uint256"
        }
      ],
      "payable": false,
      "stateMutability": "view",
      "type": "function"
    },
    {
      "constant": false,
      "inputs": [],
      "name": "acceptOwnership",
      "outputs": [],
      "payable": false,
      "stateMutability": "nonpayable",
      "type": "function"
    },
    {
      "constant": true,
      "inputs": [],
      "name": "isIcoFinished",
      "outputs": [
        {
          "name": "",
          "type": "bool"
        }
      ],
      "payable": false,
      "stateMutability": "view",
      "type": "function"
    },
    {
      "constant": true,
      "inputs": [],
      "name": "owner",
      "outputs": [
        {
          "name": "",
          "type": "address"
        }
      ],
      "payable": false,
      "stateMutability": "view",
      "type": "function"
    },
    {
      "constant": false,
      "inputs": [],
      "name": "setIcoFinishedTrue",
      "outputs": [],
      "payable": false,
      "stateMutability": "nonpayable",
      "type": "function"
    },
    {
      "constant": true,
      "inputs": [],
      "name": "symbol",
      "outputs": [
        {
          "name": "",
          "type": "string"
        }
      ],
      "payable": false,
      "stateMutability": "view",
      "type": "function"
    },
    {
      "constant": false,
      "inputs": [
        {
          "name": "_address",
          "type": "address"
        },
        {
          "name": "_value",
          "type": "uint256"
        }
      ],
      "name": "sendCrowdsaleTokens",
      "outputs": [],
      "payable": false,
      "stateMutability": "nonpayable",
      "type": "function"
    },
    {
      "constant": false,
      "inputs": [
        {
          "name": "_to",
          "type": "address"
        },
        {
          "name": "_amount",
          "type": "uint256"
        }
      ],
      "name": "transfer",
      "outputs": [
        {
          "name": "success",
          "type": "bool"
        }
      ],
      "payable": false,
      "stateMutability": "nonpayable",
      "type": "function"
    },
    {
      "constant": true,
      "inputs": [],
      "name": "newOwner",
      "outputs": [
        {
          "name": "",
          "type": "address"
        }
      ],
      "payable": false,
      "stateMutability": "view",
      "type": "function"
    },
    {
      "constant": true,
      "inputs": [
        {
          "name": "_owner",
          "type": "address"
        },
        {
          "name": "_spender",
          "type": "address"
        }
      ],
      "name": "allowance",
      "outputs": [
        {
          "name": "remaining",
          "type": "uint256"
        }
      ],
      "payable": false,
      "stateMutability": "view",
      "type": "function"
    },
    {
      "constant": false,
      "inputs": [
        {
          "name": "_newOwner",
          "type": "address"
        }
      ],
      "name": "transferOwnership",
      "outputs": [],
      "payable": false,
      "stateMutability": "nonpayable",
      "type": "function"
    },
    {
      "inputs": [],
      "payable": false,
      "stateMutability": "nonpayable",
      "type": "constructor"
    },
    {
      "anonymous": false,
      "inputs": [
        {
          "indexed": true,
          "name": "_from",
          "type": "address"
        },
        {
          "indexed": true,
          "name": "_to",
          "type": "address"
        },
        {
          "indexed": false,
          "name": "_value",
          "type": "uint256"
        }
      ],
      "name": "Transfer",
      "type": "event"
    },
    {
      "anonymous": false,
      "inputs": [
        {
          "indexed": true,
          "name": "_owner",
          "type": "address"
        },
        {
          "indexed": true,
          "name": "_spender",
          "type": "address"
        },
        {
          "indexed": false,
          "name": "_value",
          "type": "uint256"
        }
      ],
      "name": "Approval",
      "type": "event"
    }
  ],
  "bytecode": "0x60606040526200005262000030600860ff16600a6200014964010000000002620013af179091906401000000009004565b630ee6b2806200017d64010000000002620013e0179091906401000000009004565b6002556000600660006101000a81548160ff02191690831515021790555034156200007c57600080fd5b336000806101000a81548173ffffffffffffffffffffffffffffffffffffffff021916908373ffffffffffffffffffffffffffffffffffffffff16021790555033600360006101000a81548173ffffffffffffffffffffffffffffffffffffffff021916908373ffffffffffffffffffffffffffffffffffffffff160217905550600254600460003073ffffffffffffffffffffffffffffffffffffffff1673ffffffffffffffffffffffffffffffffffffffff16815260200190815260200160002081905550620001c8565b600080600083141562000160576001915062000176565b82840a90508381101515156200017257fe5b8091505b5092915050565b6000806000841480620001905750600083145b15620001a05760009150620001c1565b8284029050828482811515620001b257fe5b04141515620001bd57fe5b8091505b5092915050565b61145280620001d86000396000f300606060405260043610610107576000357c0100000000000000000000000000000000000000000000000000000000900463ffffffff16806306fdde031461010c57806308003f781461019a578063095ea7b3146101af57806318160ddd1461020957806323b872dd14610232578063313ce567146102ab57806331616395146102da5780636596cff31461032f57806370a082311461036857806379ba5097146103b55780637a543a94146103ca5780638da5cb5b146103f75780638e835e791461044c57806395d89b41146104615780639c1f020a146104ef578063a9059cbb14610531578063d4ee1d901461058b578063dd62ed3e146105e0578063f2fde38b1461064c575b600080fd5b341561011757600080fd5b61011f610685565b6040518080602001828103825283818151815260200191508051906020019080838360005b8381101561015f578082015181840152602081019050610144565b50505050905090810190601f16801561018c5780820380516001836020036101000a031916815260200191505b509250505060405180910390f35b34156101a557600080fd5b6101ad6106be565b005b34156101ba57600080fd5b6101ef600480803573ffffffffffffffffffffffffffffffffffffffff169060200190919080359060200190919050506107f0565b604051808215151515815260200191505060405180910390f35b341561021457600080fd5b61021c6108e2565b6040518082815260200191505060405180910390f35b341561023d57600080fd5b610291600480803573ffffffffffffffffffffffffffffffffffffffff1690602001909190803573ffffffffffffffffffffffffffffffffffffffff169060200190919080359060200190919050506108ec565b604051808215151515815260200191505060405180910390f35b34156102b657600080fd5b6102be610bb2565b604051808260ff1660ff16815260200191505060405180910390f35b34156102e557600080fd5b6102ed610bb7565b604051808273ffffffffffffffffffffffffffffffffffffffff1673ffffffffffffffffffffffffffffffffffffffff16815260200191505060405180910390f35b341561033a57600080fd5b610366600480803573ffffffffffffffffffffffffffffffffffffffff16906020019091905050610bdd565b005b341561037357600080fd5b61039f600480803573ffffffffffffffffffffffffffffffffffffffff16906020019091905050610c21565b6040518082815260200191505060405180910390f35b34156103c057600080fd5b6103c8610c6a565b005b34156103d557600080fd5b6103dd610d25565b604051808215151515815260200191505060405180910390f35b341561040257600080fd5b61040a610d38565b604051808273ffffffffffffffffffffffffffffffffffffffff1673ffffffffffffffffffffffffffffffffffffffff16815260200191505060405180910390f35b341561045757600080fd5b61045f610d5e565b005b341561046c57600080fd5b610474610dd7565b6040518080602001828103825283818151815260200191508051906020019080838360005b838110156104b4578082015181840152602081019050610499565b50505050905090810190601f1680156104e15780820380516001836020036101000a031916815260200191505b509250505060405180910390f35b34156104fa57600080fd5b61052f600480803573ffffffffffffffffffffffffffffffffffffffff16906020019091908035906020019091905050610e10565b005b341561053c57600080fd5b610571600480803573ffffffffffffffffffffffffffffffffffffffff16906020019091908035906020019091905050610fff565b604051808215151515815260200191505060405180910390f35b341561059657600080fd5b61059e6111f0565b604051808273ffffffffffffffffffffffffffffffffffffffff1673ffffffffffffffffffffffffffffffffffffffff16815260200191505060405180910390f35b34156105eb57600080fd5b610636600480803573ffffffffffffffffffffffffffffffffffffffff1690602001909190803573ffffffffffffffffffffffffffffffffffffffff16906020019091905050611216565b6040518082815260200191505060405180910390f35b341561065757600080fd5b610683600480803573ffffffffffffffffffffffffffffffffffffffff1690602001909190505061129d565b005b6040805190810160405280601381526020017f4164756c7420496e74726f204e6574776f726b0000000000000000000000000081525081565b600660019054906101000a900473ffffffffffffffffffffffffffffffffffffffff1673ffffffffffffffffffffffffffffffffffffffff163373ffffffffffffffffffffffffffffffffffffffff1614151561071a57600080fd5b60003073ffffffffffffffffffffffffffffffffffffffff167fddf252ad1be2c89b69c2b068fc378daa952ba7f163c4a11628f55a4df523b3ef600460003073ffffffffffffffffffffffffffffffffffffffff1673ffffffffffffffffffffffffffffffffffffffff168152602001908152602001600020546040518082815260200191505060405180910390a36000600460003073ffffffffffffffffffffffffffffffffffffffff1673ffffffffffffffffffffffffffffffffffffffff16815260200190815260200160002081905550565b600081600560003373ffffffffffffffffffffffffffffffffffffffff1673ffffffffffffffffffffffffffffffffffffffff16815260200190815260200160002060008573ffffffffffffffffffffffffffffffffffffffff1673ffffffffffffffffffffffffffffffffffffffff168152602001908152602001600020819055508273ffffffffffffffffffffffffffffffffffffffff163373ffffffffffffffffffffffffffffffffffffffff167f8c5be1e5ebec7d5bd14f71427d1e84f3dd0314c0f7b2291e5b200ac8c7c3b925846040518082815260200191505060405180910390a36001905092915050565b6000600254905090565b6000600660009054906101000a900460ff16151561090957600080fd5b61095b82600460008773ffffffffffffffffffffffffffffffffffffffff1673ffffffffffffffffffffffffffffffffffffffff1681526020019081526020016000205461137890919063ffffffff16565b600460008673ffffffffffffffffffffffffffffffffffffffff1673ffffffffffffffffffffffffffffffffffffffff16815260200190815260200160002081905550610a2d82600560008773ffffffffffffffffffffffffffffffffffffffff1673ffffffffffffffffffffffffffffffffffffffff16815260200190815260200160002060003373ffffffffffffffffffffffffffffffffffffffff1673ffffffffffffffffffffffffffffffffffffffff1681526020019081526020016000205461137890919063ffffffff16565b600560008673ffffffffffffffffffffffffffffffffffffffff1673ffffffffffffffffffffffffffffffffffffffff16815260200190815260200160002060003373ffffffffffffffffffffffffffffffffffffffff1673ffffffffffffffffffffffffffffffffffffffff16815260200190815260200160002081905550610aff82600460008673ffffffffffffffffffffffffffffffffffffffff1673ffffffffffffffffffffffffffffffffffffffff1681526020019081526020016000205461139190919063ffffffff16565b600460008573ffffffffffffffffffffffffffffffffffffffff1673ffffffffffffffffffffffffffffffffffffffff168152602001908152602001600020819055508273ffffffffffffffffffffffffffffffffffffffff168473ffffffffffffffffffffffffffffffffffffffff167fddf252ad1be2c89b69c2b068fc378daa952ba7f163c4a11628f55a4df523b3ef846040518082815260200191505060405180910390a3600190509392505050565b600881565b600660019054906101000a900473ffffffffffffffffffffffffffffffffffffffff1681565b80600660016101000a81548173ffffffffffffffffffffffffffffffffffffffff021916908373ffffffffffffffffffffffffffffffffffffffff16021790555050565b6000600460008373ffffffffffffffffffffffffffffffffffffffff1673ffffffffffffffffffffffffffffffffffffffff168152602001908152602001600020549050919050565b600160009054906101000a900473ffffffffffffffffffffffffffffffffffffffff1673ffffffffffffffffffffffffffffffffffffffff163373ffffffffffffffffffffffffffffffffffffffff161415610d2357600160009054906101000a900473ffffffffffffffffffffffffffffffffffffffff166000806101000a81548173ffffffffffffffffffffffffffffffffffffffff021916908373ffffffffffffffffffffffffffffffffffffffff1602179055505b565b600660009054906101000a900460ff1681565b600360009054906101000a900473ffffffffffffffffffffffffffffffffffffffff1681565b600660019054906101000a900473ffffffffffffffffffffffffffffffffffffffff1673ffffffffffffffffffffffffffffffffffffffff163373ffffffffffffffffffffffffffffffffffffffff16141515610dba57600080fd5b6001600660006101000a81548160ff021916908315150217905550565b6040805190810160405280600381526020017f41494e000000000000000000000000000000000000000000000000000000000081525081565b600660019054906101000a900473ffffffffffffffffffffffffffffffffffffffff1673ffffffffffffffffffffffffffffffffffffffff163373ffffffffffffffffffffffffffffffffffffffff16141515610e6c57600080fd5b610ebe81600460003073ffffffffffffffffffffffffffffffffffffffff1673ffffffffffffffffffffffffffffffffffffffff1681526020019081526020016000205461137890919063ffffffff16565b600460003073ffffffffffffffffffffffffffffffffffffffff1673ffffffffffffffffffffffffffffffffffffffff16815260200190815260200160002081905550610f5381600460008573ffffffffffffffffffffffffffffffffffffffff1673ffffffffffffffffffffffffffffffffffffffff1681526020019081526020016000205461139190919063ffffffff16565b600460008473ffffffffffffffffffffffffffffffffffffffff1673ffffffffffffffffffffffffffffffffffffffff168152602001908152602001600020819055508173ffffffffffffffffffffffffffffffffffffffff163073ffffffffffffffffffffffffffffffffffffffff167fddf252ad1be2c89b69c2b068fc378daa952ba7f163c4a11628f55a4df523b3ef836040518082815260200191505060405180910390a35050565b6000600660009054906101000a900460ff16151561101c57600080fd5b8273ffffffffffffffffffffffffffffffffffffffff163073ffffffffffffffffffffffffffffffffffffffff161415151561105757600080fd5b6110a982600460003373ffffffffffffffffffffffffffffffffffffffff1673ffffffffffffffffffffffffffffffffffffffff1681526020019081526020016000205461137890919063ffffffff16565b600460003373ffffffffffffffffffffffffffffffffffffffff1673ffffffffffffffffffffffffffffffffffffffff1681526020019081526020016000208190555061113e82600460008673ffffffffffffffffffffffffffffffffffffffff1673ffffffffffffffffffffffffffffffffffffffff1681526020019081526020016000205461139190919063ffffffff16565b600460008573ffffffffffffffffffffffffffffffffffffffff1673ffffffffffffffffffffffffffffffffffffffff168152602001908152602001600020819055508273ffffffffffffffffffffffffffffffffffffffff163373ffffffffffffffffffffffffffffffffffffffff167fddf252ad1be2c89b69c2b068fc378daa952ba7f163c4a11628f55a4df523b3ef846040518082815260200191505060405180910390a36001905092915050565b600160009054906101000a900473ffffffffffffffffffffffffffffffffffffffff1681565b6000600560008473ffffffffffffffffffffffffffffffffffffffff1673ffffffffffffffffffffffffffffffffffffffff16815260200190815260200160002060008373ffffffffffffffffffffffffffffffffffffffff1673ffffffffffffffffffffffffffffffffffffffff16815260200190815260200160002054905092915050565b6000809054906101000a900473ffffffffffffffffffffffffffffffffffffffff1673ffffffffffffffffffffffffffffffffffffffff163373ffffffffffffffffffffffffffffffffffffffff161415156112f857600080fd5b600073ffffffffffffffffffffffffffffffffffffffff168173ffffffffffffffffffffffffffffffffffffffff161415151561133457600080fd5b80600160006101000a81548173ffffffffffffffffffffffffffffffffffffffff021916908373ffffffffffffffffffffffffffffffffffffffff16021790555050565b600082821115151561138657fe5b818303905092915050565b60008082840190508381101515156113a557fe5b8091505092915050565b60008060008314156113c457600191506113d9565b82840a90508381101515156113d557fe5b8091505b5092915050565b60008060008414806113f25750600083145b15611400576000915061141f565b828402905082848281151561141157fe5b0414151561141b57fe5b8091505b50929150505600a165627a7a723058209a590e0cfd4e2f0b1e6912af5308d330d9c68b00a944acfc2b5fb29d942ec41a0029",
  "source": "pragma solidity ^0.4.19;\n\nlibrary SafeMath { //standart library for uint\n  function mul(uint256 a, uint256 b) internal pure returns (uint256) {\n    if (a == 0 || b == 0){\n        return 0;\n    }\n    uint256 c = a * b;\n    assert(c / a == b);\n    return c;\n  }\n\n  function sub(uint256 a, uint256 b) internal pure returns (uint256) {\n    assert(b <= a);\n    return a - b;\n  }\n\n  function add(uint256 a, uint256 b) internal pure returns (uint256) {\n    uint256 c = a + b;\n    assert(c >= a);\n    return c;\n  }\n\n  function pow(uint256 a, uint256 b) internal pure returns (uint256){ //power function\n    if (b == 0){\n      return 1;\n    }\n    uint256 c = a**b;\n    assert (c >= a);\n    return c;\n  }\n}\n\n//standart contract to identify owner\ncontract Ownable {\n\n  address public owner;\n\n  address public newOwner;\n\n  modifier onlyOwner() {\n    require(msg.sender == owner);\n    _;\n  }\n\n  function Ownable() public {\n    owner = msg.sender;\n  }\n\n  function transferOwnership(address _newOwner) public onlyOwner {\n    require(_newOwner != address(0));\n    newOwner = _newOwner;\n  }\n\n  function acceptOwnership() public {\n    if (msg.sender == newOwner) {\n      owner = newOwner;\n    }\n  }\n}\n\ncontract AinToken is Ownable { //ERC - 20 token contract\n  using SafeMath for uint;\n  // Triggered when tokens are transferred.\n  event Transfer(address indexed _from, address indexed _to, uint256 _value);\n\n  // Triggered whenever approve(address _spender, uint256 _value) is called.\n  event Approval(address indexed _owner, address indexed _spender, uint256 _value);\n\n  string public constant symbol = \"AIN\";\n  string public constant name = \"Adult Intro Network\";\n  uint8 public constant decimals = 8;\n  uint256 _totalSupply = (uint)(250000000).mul((uint)(10).pow(decimals));\n\n  // Owner of this contract\n  address public owner;\n\n  // Balances for each account\n  mapping(address => uint256) balances;\n\n  // Owner of account approves the transfer of an amount to another account\n  mapping(address => mapping (address => uint256)) allowed;\n\n\n\n  function totalSupply() public view returns (uint256) { //standart ERC-20 function\n    return _totalSupply;\n  }\n\n  function balanceOf(address _address) public view returns (uint256 balance) {//standart ERC-20 function\n    return balances[_address];\n  }\n\n  bool public isIcoFinished = false;\n  function setIcoFinishedTrue () public{\n    require (msg.sender == crowdsaleContract);\n    isIcoFinished = true;\n  }\n  \n\n  //standart ERC-20 function\n  function transfer(address _to, uint256 _amount) public returns (bool success) {\n    require(isIcoFinished);\n    require(this != _to);\n    balances[msg.sender] = balances[msg.sender].sub(_amount);\n    balances[_to] = balances[_to].add(_amount);\n    Transfer(msg.sender,_to,_amount);\n    return true;\n  }\n\n  //standart ERC-20 function\n  function transferFrom(address _from, address _to, uint256 _amount) public returns(bool success){\n    require(isIcoFinished);\n    balances[_from] = balances[_from].sub(_amount);\n    allowed[_from][msg.sender] = allowed[_from][msg.sender].sub(_amount);\n    balances[_to] = balances[_to].add(_amount);\n    Transfer(_from,_to,_amount);\n    return true;\n  }\n  //standart ERC-20 function\n  function approve(address _spender, uint256 _amount)public returns (bool success) { \n    allowed[msg.sender][_spender] = _amount;\n    Approval(msg.sender, _spender, _amount);\n    return true;\n  }\n\n  //standart ERC-20 function\n  function allowance(address _owner, address _spender)public constant returns (uint256 remaining) {\n    return allowed[_owner][_spender];\n  }\n\n  //Constructor\n  function AinToken() public {\n    owner = msg.sender;\n    balances[this] = _totalSupply;\n  }\n\n  address public crowdsaleContract;\n\n  function setCrowdsaleContract (address _address) public{\n    // require(crowdsaleContract == address(0));\n\n    crowdsaleContract = _address;\n  }\n\n  function sendCrowdsaleTokens (address _address, uint _value) public {\n    require(msg.sender == crowdsaleContract);\n\n    balances[this] = balances[this].sub(_value);\n    balances[_address] = balances[_address].add(_value);\n    Transfer(this,_address,_value);    \n  }\n  \n  function burnTokens() public {\n    require(msg.sender == crowdsaleContract);\n\n    Transfer(this,0,balances[this]);\n    balances[this] = 0;\n  }\n}\n",
  "sourcePath": "/home/romuch/Desktop/AINTruffle/contracts/AIN.sol",
  "compiler": {
    "name": "solc",
    "version": "0.4.19+commit.c4cbbb05.Emscripten.clang"
  },
  "schemaVersion": "1.0.1",
  "updatedAt": "2018-03-05T12:19:06.228Z"
}