{
  "contractName": "Crowdsale",
  "abi": [
    {
      "constant": true,
      "inputs": [
        {
          "name": "_bytes",
          "type": "bytes"
        }
      ],
      "name": "bytesToUint",
      "outputs": [
        {
          "name": "",
          "type": "uint256"
        }
      ],
      "payable": false,
      "stateMutability": "pure",
      "type": "function"
    },
    {
      "constant": true,
      "inputs": [
        {
          "name": "_time",
          "type": "uint256"
        }
      ],
      "name": "isIco",
      "outputs": [
        {
          "name": "",
          "type": "bool"
        }
      ],
      "payable": false,
      "stateMutability": "view",
      "type": "function"
    },
    {
      "constant": true,
      "inputs": [
        {
          "name": "_trackingNumber",
          "type": "uint256"
        }
      ],
      "name": "showSales",
      "outputs": [
        {
          "name": "",
          "type": "address"
        },
        {
          "name": "",
          "type": "uint256"
        },
        {
          "name": "",
          "type": "uint256"
        }
      ],
      "payable": false,
      "stateMutability": "view",
      "type": "function"
    },
    {
      "constant": true,
      "inputs": [
        {
          "name": "_value",
          "type": "uint256"
        },
        {
          "name": "_time",
          "type": "uint256"
        }
      ],
      "name": "etherToTokens",
      "outputs": [
        {
          "name": "res",
          "type": "uint256"
        }
      ],
      "payable": false,
      "stateMutability": "view",
      "type": "function"
    },
    {
      "constant": false,
      "inputs": [
        {
          "name": "_trackingNumber",
          "type": "uint256"
        }
      ],
      "name": "buyTokensWithSales",
      "outputs": [],
      "payable": true,
      "stateMutability": "payable",
      "type": "function"
    },
    {
      "constant": true,
      "inputs": [
        {
          "name": "",
          "type": "uint256"
        }
      ],
      "name": "bountyAddresses",
      "outputs": [
        {
          "name": "addr",
          "type": "address"
        },
        {
          "name": "percent",
          "type": "uint256"
        }
      ],
      "payable": false,
      "stateMutability": "view",
      "type": "function"
    },
    {
      "constant": true,
      "inputs": [],
      "name": "preIcoStart",
      "outputs": [
        {
          "name": "",
          "type": "uint256"
        }
      ],
      "payable": false,
      "stateMutability": "view",
      "type": "function"
    },
    {
      "constant": true,
      "inputs": [
        {
          "name": "_time",
          "type": "uint256"
        }
      ],
      "name": "isPreIco",
      "outputs": [
        {
          "name": "",
          "type": "bool"
        }
      ],
      "payable": false,
      "stateMutability": "view",
      "type": "function"
    },
    {
      "constant": true,
      "inputs": [],
      "name": "preIcoTokensSold",
      "outputs": [
        {
          "name": "",
          "type": "uint256"
        }
      ],
      "payable": false,
      "stateMutability": "view",
      "type": "function"
    },
    {
      "constant": true,
      "inputs": [],
      "name": "tokensSold",
      "outputs": [
        {
          "name": "",
          "type": "uint256"
        }
      ],
      "payable": false,
      "stateMutability": "view",
      "type": "function"
    },
    {
      "constant": true,
      "inputs": [
        {
          "name": "_value",
          "type": "uint256"
        }
      ],
      "name": "preIcoPriceAmount",
      "outputs": [
        {
          "name": "",
          "type": "uint256"
        }
      ],
      "payable": false,
      "stateMutability": "view",
      "type": "function"
    },
    {
      "constant": false,
      "inputs": [
        {
          "name": "_address",
          "type": "address"
        },
        {
          "name": "_percent",
          "type": "uint256"
        }
      ],
      "name": "addBountryAddress",
      "outputs": [],
      "payable": false,
      "stateMutability": "nonpayable",
      "type": "function"
    },
    {
      "constant": false,
      "inputs": [],
      "name": "acceptOwnership",
      "outputs": [],
      "payable": false,
      "stateMutability": "nonpayable",
      "type": "function"
    },
    {
      "constant": true,
      "inputs": [],
      "name": "preIcoFinish",
      "outputs": [
        {
          "name": "",
          "type": "uint256"
        }
      ],
      "payable": false,
      "stateMutability": "view",
      "type": "function"
    },
    {
      "constant": true,
      "inputs": [],
      "name": "icoStart",
      "outputs": [
        {
          "name": "",
          "type": "uint256"
        }
      ],
      "payable": false,
      "stateMutability": "view",
      "type": "function"
    },
    {
      "constant": true,
      "inputs": [],
      "name": "owner",
      "outputs": [
        {
          "name": "",
          "type": "address"
        }
      ],
      "payable": false,
      "stateMutability": "view",
      "type": "function"
    },
    {
      "constant": true,
      "inputs": [
        {
          "name": "_value",
          "type": "uint256"
        }
      ],
      "name": "icoPriceAmount",
      "outputs": [
        {
          "name": "",
          "type": "uint256"
        }
      ],
      "payable": false,
      "stateMutability": "view",
      "type": "function"
    },
    {
      "constant": false,
      "inputs": [
        {
          "name": "_address",
          "type": "address"
        },
        {
          "name": "_percent",
          "type": "uint256"
        }
      ],
      "name": "changeBountryAddressPercent",
      "outputs": [],
      "payable": false,
      "stateMutability": "nonpayable",
      "type": "function"
    },
    {
      "constant": true,
      "inputs": [],
      "name": "preIcoMaxCap",
      "outputs": [
        {
          "name": "",
          "type": "uint256"
        }
      ],
      "payable": false,
      "stateMutability": "view",
      "type": "function"
    },
    {
      "constant": true,
      "inputs": [],
      "name": "icoTokensSold",
      "outputs": [
        {
          "name": "",
          "type": "uint256"
        }
      ],
      "payable": false,
      "stateMutability": "view",
      "type": "function"
    },
    {
      "constant": true,
      "inputs": [],
      "name": "icoFinish",
      "outputs": [
        {
          "name": "",
          "type": "uint256"
        }
      ],
      "payable": false,
      "stateMutability": "view",
      "type": "function"
    },
    {
      "constant": true,
      "inputs": [],
      "name": "icoMaxCap",
      "outputs": [
        {
          "name": "",
          "type": "uint256"
        }
      ],
      "payable": false,
      "stateMutability": "view",
      "type": "function"
    },
    {
      "constant": true,
      "inputs": [],
      "name": "ethCollected",
      "outputs": [
        {
          "name": "",
          "type": "uint256"
        }
      ],
      "payable": false,
      "stateMutability": "view",
      "type": "function"
    },
    {
      "constant": true,
      "inputs": [
        {
          "name": "",
          "type": "uint256"
        }
      ],
      "name": "salesTrackingNumbers",
      "outputs": [
        {
          "name": "",
          "type": "uint256"
        }
      ],
      "payable": false,
      "stateMutability": "view",
      "type": "function"
    },
    {
      "constant": true,
      "inputs": [],
      "name": "newOwner",
      "outputs": [
        {
          "name": "",
          "type": "address"
        }
      ],
      "payable": false,
      "stateMutability": "view",
      "type": "function"
    },
    {
      "constant": false,
      "inputs": [
        {
          "name": "_address",
          "type": "address"
        },
        {
          "name": "_commisson",
          "type": "uint256"
        },
        {
          "name": "_trackingNumber",
          "type": "uint256"
        },
        {
          "name": "_bonusToken",
          "type": "uint256"
        }
      ],
      "name": "addSales",
      "outputs": [],
      "payable": false,
      "stateMutability": "nonpayable",
      "type": "function"
    },
    {
      "constant": false,
      "inputs": [],
      "name": "endIco",
      "outputs": [],
      "payable": false,
      "stateMutability": "nonpayable",
      "type": "function"
    },
    {
      "constant": false,
      "inputs": [
        {
          "name": "_newOwner",
          "type": "address"
        }
      ],
      "name": "transferOwnership",
      "outputs": [],
      "payable": false,
      "stateMutability": "nonpayable",
      "type": "function"
    },
    {
      "constant": true,
      "inputs": [],
      "name": "token",
      "outputs": [
        {
          "name": "",
          "type": "address"
        }
      ],
      "payable": false,
      "stateMutability": "view",
      "type": "function"
    },
    {
      "inputs": [
        {
          "name": "_tokenAddress",
          "type": "address"
        }
      ],
      "payable": false,
      "stateMutability": "nonpayable",
      "type": "constructor"
    },
    {
      "payable": true,
      "stateMutability": "payable",
      "type": "fallback"
    }
  ],
  "bytecode": "0x60606040526008600255731eece4a2d1845319f5162221c6aac885af44baa5600460006101000a81548173ffffffffffffffffffffffffffffffffffffffff021916908373ffffffffffffffffffffffffffffffffffffffff1602179055507337041a0b698b802c3a44447b5532d1c6da05c0de600560006101000a81548173ffffffffffffffffffffffffffffffffffffffff021916908373ffffffffffffffffffffffffffffffffffffffff160217905550733e2017b68ec11e5c8733d38c4dfcb18a039d4c23600660006101000a81548173ffffffffffffffffffffffffffffffffffffffff021916908373ffffffffffffffffffffffffffffffffffffffff160217905550733e2017b68ec11e5c8733d38c4dfcb18a039d4c23600760006101000a81548173ffffffffffffffffffffffffffffffffffffffff021916908373ffffffffffffffffffffffffffffffffffffffff16021790555060006009556000600a556000600b556000600c556000600d55635ad2dc50600e55635ad2dc51600f55635b2347d0601055620001da620001b8600254600a6200040a640100000000026200223e179091906401000000009004565b63036d61606200043e640100000000026200226f179091906401000000009004565b6011556200022962000207600254600a6200040a640100000000026200223e179091906401000000009004565b6308f0d1806200043e640100000000026200226f179091906401000000009004565b6012556000601360006101000a81548160ff02191690831515021790555034156200025357600080fd5b60405160208062002aa883398101604052808051906020019091905050336000806101000a81548173ffffffffffffffffffffffffffffffffffffffff021916908373ffffffffffffffffffffffffffffffffffffffff16021790555080600360006101000a81548173ffffffffffffffffffffffffffffffffffffffff021916908373ffffffffffffffffffffffffffffffffffffffff160217905550336000806101000a81548173ffffffffffffffffffffffffffffffffffffffff021916908373ffffffffffffffffffffffffffffffffffffffff160217905550600360009054906101000a900473ffffffffffffffffffffffffffffffffffffffff1673ffffffffffffffffffffffffffffffffffffffff16636596cff3306040518263ffffffff167c0100000000000000000000000000000000000000000000000000000000028152600401808273ffffffffffffffffffffffffffffffffffffffff1673ffffffffffffffffffffffffffffffffffffffff168152602001915050600060405180830381600087803b1515620003ee57600080fd5b6102c65a03f115156200040057600080fd5b5050505062000495565b600080600083141562000421576001915062000437565b82840a90508381101515156200043357fe5b8091505b5092915050565b6000806000841480620004515750600083145b156200046157600091506200048e565b828402905060008414806200048157508284828115156200047e57fe5b04145b15156200048a57fe5b8091505b5092915050565b61260380620004a56000396000f300606060405260043610610175576000357c0100000000000000000000000000000000000000000000000000000000900463ffffffff16806302d06d05146102095780630a1e71de1461027a5780630b2c6dfc146102b55780630fa95aee146103265780631a268321146103665780631d70145c1461037e5780633d741994146103e8578063414b85e41461041157806346e2a1741461044c578063518ab2a8146104755780636bea046c1461049e5780637581516a146104d557806379ba5097146105175780637d57a85c1461052c578063827037db146105555780638da5cb5b1461057e57806393314c63146105d3578063a752d9951461060a578063a767d8be1461064c578063aab725b314610675578063b333ce0d1461069e578063b7134feb146106c7578063bee2e134146106f0578063c525345614610719578063d4ee1d9014610750578063dce7103b146107a5578063e657807b146107f9578063f2fde38b1461080e578063fc0c546a14610847575b61017e4261089c565b8061018e575061018d426108ca565b5b151561019957600080fd5b60008036905011156101f0576101eb336101e56000368080601f0160208091040260200160405190810160405280939291908181526020018383808284378201915050505050506108f8565b346109e6565b610207565b6101fb333442610d34565b151561020657600080fd5b5b005b341561021457600080fd5b610264600480803590602001908201803590602001908080601f016020809104026020016040519081016040528093929190818152602001838380828437820191505050505050919050506108f8565b6040518082815260200191505060405180910390f35b341561028557600080fd5b61029b60048080359060200190919050506108ca565b604051808215151515815260200191505060405180910390f35b34156102c057600080fd5b6102d66004808035906020019091905050611037565b604051808473ffffffffffffffffffffffffffffffffffffffff1673ffffffffffffffffffffffffffffffffffffffff168152602001838152602001828152602001935050505060405180910390f35b341561033157600080fd5b61035060048080359060200190919080359060200190919050506110ae565b6040518082815260200191505060405180910390f35b61037c6004808035906020019091905050611103565b005b341561038957600080fd5b61039f600480803590602001909190505061144f565b604051808373ffffffffffffffffffffffffffffffffffffffff1673ffffffffffffffffffffffffffffffffffffffff1681526020018281526020019250505060405180910390f35b34156103f357600080fd5b6103fb6114a2565b6040518082815260200191505060405180910390f35b341561041c57600080fd5b610432600480803590602001909190505061089c565b604051808215151515815260200191505060405180910390f35b341561045757600080fd5b61045f6114a8565b6040518082815260200191505060405180910390f35b341561048057600080fd5b6104886114ae565b6040518082815260200191505060405180910390f35b34156104a957600080fd5b6104bf60048080359060200190919050506114b4565b6040518082815260200191505060405180910390f35b34156104e057600080fd5b610515600480803573ffffffffffffffffffffffffffffffffffffffff1690602001909190803590602001909190505061165e565b005b341561052257600080fd5b61052a61187c565b005b341561053757600080fd5b61053f611937565b6040518082815260200191505060405180910390f35b341561056057600080fd5b61056861193d565b6040518082815260200191505060405180910390f35b341561058957600080fd5b610591611943565b604051808273ffffffffffffffffffffffffffffffffffffffff1673ffffffffffffffffffffffffffffffffffffffff16815260200191505060405180910390f35b34156105de57600080fd5b6105f46004808035906020019091905050611968565b6040518082815260200191505060405180910390f35b341561061557600080fd5b61064a600480803573ffffffffffffffffffffffffffffffffffffffff16906020019091908035906020019091905050611b12565b005b341561065757600080fd5b61065f611ca8565b6040518082815260200191505060405180910390f35b341561068057600080fd5b610688611cae565b6040518082815260200191505060405180910390f35b34156106a957600080fd5b6106b1611cb4565b6040518082815260200191505060405180910390f35b34156106d257600080fd5b6106da611cba565b6040518082815260200191505060405180910390f35b34156106fb57600080fd5b610703611cc0565b6040518082815260200191505060405180910390f35b341561072457600080fd5b61073a6004808035906020019091905050611cc6565b6040518082815260200191505060405180910390f35b341561075b57600080fd5b610763611cea565b604051808273ffffffffffffffffffffffffffffffffffffffff1673ffffffffffffffffffffffffffffffffffffffff16815260200191505060405180910390f35b34156107b057600080fd5b6107f7600480803573ffffffffffffffffffffffffffffffffffffffff16906020019091908035906020019091908035906020019091908035906020019091905050611d10565b005b341561080457600080fd5b61080c611e75565b005b341561081957600080fd5b610845600480803573ffffffffffffffffffffffffffffffffffffffff1690602001909190505061213d565b005b341561085257600080fd5b61085a612218565b604051808273ffffffffffffffffffffffffffffffffffffffff1673ffffffffffffffffffffffffffffffffffffffff16815260200191505060405180910390f35b600081600d54111580156108b25750600e548211155b156108c057600190506108c5565b600090505b919050565b600081600f54111580156108e057506010548211155b156108ee57600190506108f3565b600090505b919050565b60008060008060009250600091505b84518210156109db57848260018751030381518110151561092457fe5b9060200101517f010000000000000000000000000000000000000000000000000000000000000090047f0100000000000000000000000000000000000000000000000000000000000000027f0100000000000000000000000000000000000000000000000000000000000000900490506109ab82600202600a61223e90919063ffffffff16565b6010828115156109b757fe5b06600a6010848115156109c657fe5b04020102830192508180600101925050610907565b829350505050919050565b60008073ffffffffffffffffffffffffffffffffffffffff166015600085815260200190815260200160002060000160009054906101000a900473ffffffffffffffffffffffffffffffffffffffff1673ffffffffffffffffffffffffffffffffffffffff1614151515610a5957600080fd5b610a6382426110ae565b9050610aac6064610a9360156000878152602001908152602001600020600301548461226f90919063ffffffff16565b811515610a9c57fe5b04826122c090919063ffffffff16565b9050600360009054906101000a900473ffffffffffffffffffffffffffffffffffffffff1673ffffffffffffffffffffffffffffffffffffffff16639c1f020a85836040518363ffffffff167c0100000000000000000000000000000000000000000000000000000000028152600401808373ffffffffffffffffffffffffffffffffffffffff1673ffffffffffffffffffffffffffffffffffffffff16815260200182815260200192505050600060405180830381600087803b1515610b7257600080fd5b6102c65a03f11515610b8357600080fd5b5050506015600084815260200190815260200160002060000160009054906101000a900473ffffffffffffffffffffffffffffffffffffffff1673ffffffffffffffffffffffffffffffffffffffff166108fc6064610c0160156000888152602001908152602001600020600101548661226f90919063ffffffff16565b811515610c0a57fe5b049081150290604051600060405180830381858888f193505050501515610c3057600080fd5b600460009054906101000a900473ffffffffffffffffffffffffffffffffffffffff1673ffffffffffffffffffffffffffffffffffffffff166108fc60023073ffffffffffffffffffffffffffffffffffffffff1631811515610c8f57fe5b049081150290604051600060405180830381858888f193505050501515610cb557600080fd5b600560009054906101000a900473ffffffffffffffffffffffffffffffffffffffff1673ffffffffffffffffffffffffffffffffffffffff166108fc3073ffffffffffffffffffffffffffffffffffffffff16319081150290604051600060405180830381858888f193505050501515610d2e57600080fd5b50505050565b600080610d4184846110ae565b9050610d4c8361089c565b15610d9657601154610d69826009546122c090919063ffffffff16565b11151515610d7657600080fd5b610d8b816009546122c090919063ffffffff16565b600981905550610e3a565b601360009054906101000a900460ff161515610df957610dd7610dc66009546011546122de90919063ffffffff16565b6012546122c090919063ffffffff16565b6012819055506001601360006101000a81548160ff0219169083151502179055505b601254610e1182600a546122c090919063ffffffff16565b11151515610e1e57600080fd5b610e3381600a546122c090919063ffffffff16565b600a819055505b610e4f81600b546122c090919063ffffffff16565b600b81905550600360009054906101000a900473ffffffffffffffffffffffffffffffffffffffff1673ffffffffffffffffffffffffffffffffffffffff16639c1f020a86836040518363ffffffff167c0100000000000000000000000000000000000000000000000000000000028152600401808373ffffffffffffffffffffffffffffffffffffffff1673ffffffffffffffffffffffffffffffffffffffff16815260200182815260200192505050600060405180830381600087803b1515610f1957600080fd5b6102c65a03f11515610f2a57600080fd5b505050600460009054906101000a900473ffffffffffffffffffffffffffffffffffffffff1673ffffffffffffffffffffffffffffffffffffffff166108fc60023073ffffffffffffffffffffffffffffffffffffffff1631811515610f8c57fe5b049081150290604051600060405180830381858888f193505050501515610fb257600080fd5b600560009054906101000a900473ffffffffffffffffffffffffffffffffffffffff1673ffffffffffffffffffffffffffffffffffffffff166108fc3073ffffffffffffffffffffffffffffffffffffffff16319081150290604051600060405180830381858888f19350505050151561102b57600080fd5b60019150509392505050565b60008060006015600085815260200190815260200160002060000160009054906101000a900473ffffffffffffffffffffffffffffffffffffffff16601560008681526020019081526020016000206001015460156000878152602001908152602001600020600301549250925092509193909250565b60008090506110bc8261089c565b156110d8576110ca836114b4565b838115156110d457fe5b0490505b6110e1826108ca565b156110fd576110ef83611968565b838115156110f957fe5b0490505b92915050565b60008073ffffffffffffffffffffffffffffffffffffffff166015600084815260200190815260200160002060000160009054906101000a900473ffffffffffffffffffffffffffffffffffffffff1673ffffffffffffffffffffffffffffffffffffffff161415151561117657600080fd5b61118034426110ae565b90506111c960646111b060156000868152602001908152602001600020600301548461226f90919063ffffffff16565b8115156111b957fe5b04826122c090919063ffffffff16565b9050600360009054906101000a900473ffffffffffffffffffffffffffffffffffffffff1673ffffffffffffffffffffffffffffffffffffffff16639c1f020a33836040518363ffffffff167c0100000000000000000000000000000000000000000000000000000000028152600401808373ffffffffffffffffffffffffffffffffffffffff1673ffffffffffffffffffffffffffffffffffffffff16815260200182815260200192505050600060405180830381600087803b151561128f57600080fd5b6102c65a03f115156112a057600080fd5b5050506015600083815260200190815260200160002060000160009054906101000a900473ffffffffffffffffffffffffffffffffffffffff1673ffffffffffffffffffffffffffffffffffffffff166108fc606461131e60156000878152602001908152602001600020600101543461226f90919063ffffffff16565b81151561132757fe5b049081150290604051600060405180830381858888f19350505050151561134d57600080fd5b600460009054906101000a900473ffffffffffffffffffffffffffffffffffffffff1673ffffffffffffffffffffffffffffffffffffffff166108fc60023073ffffffffffffffffffffffffffffffffffffffff16318115156113ac57fe5b049081150290604051600060405180830381858888f1935050505015156113d257600080fd5b600560009054906101000a900473ffffffffffffffffffffffffffffffffffffffff1673ffffffffffffffffffffffffffffffffffffffff166108fc3073ffffffffffffffffffffffffffffffffffffffff16319081150290604051600060405180830381858888f19350505050151561144b57600080fd5b5050565b60088181548110151561145e57fe5b90600052602060002090600202016000915090508060000160009054906101000a900473ffffffffffffffffffffffffffffffffffffffff16908060010154905082565b600d5481565b60095481565b600b5481565b6000678ac7230489e800008210156114f4576114dc600254600a61223e90919063ffffffff16565b655af3107a40008115156114ec57fe5b049050611659565b68015af1d78b58c400008210156115335761151b600254600a61223e90919063ffffffff16565b6552ae6c042c8081151561152b57fe5b049050611659565b6802b5e3af16b18800008210156115725761155a600254600a61223e90919063ffffffff16565b654bca8d88588081151561156a57fe5b049050611659565b68056bc75e2d631000008210156115b157611599600254600a61223e90919063ffffffff16565b6545f60c432b808115156115a957fe5b049050611659565b680d8d726b7177a800008210156115f0576115d8600254600a61223e90919063ffffffff16565b6540f6c28aaa808115156115e857fe5b049050611659565b681b1ae4d6e2ef50000082101561162f57611617600254600a61223e90919063ffffffff16565b653ca20a96710081151561162757fe5b049050611659565b611645600254600a61223e90919063ffffffff16565b652d79883d200081151561165557fe5b0490505b919050565b600080611669612497565b6000809054906101000a900473ffffffffffffffffffffffffffffffffffffffff1673ffffffffffffffffffffffffffffffffffffffff163373ffffffffffffffffffffffffffffffffffffffff161415156116c457600080fd5b600091505b600880549050821015611793578473ffffffffffffffffffffffffffffffffffffffff166008838154811015156116fc57fe5b906000526020600020906002020160000160009054906101000a900473ffffffffffffffffffffffffffffffffffffffff1673ffffffffffffffffffffffffffffffffffffffff161415151561175157600080fd5b61178460088381548110151561176357fe5b906000526020600020906002020160010154846122c090919063ffffffff16565b925081806001019250506116c9565b60646117a885856122c090919063ffffffff16565b111515156117b557600080fd5b84816000019073ffffffffffffffffffffffffffffffffffffffff16908173ffffffffffffffffffffffffffffffffffffffff1681525050838160200181815250506008805480600101828161180b91906124c7565b9160005260206000209060020201600083909190915060008201518160000160006101000a81548173ffffffffffffffffffffffffffffffffffffffff021916908373ffffffffffffffffffffffffffffffffffffffff160217905550602082015181600101555050505050505050565b600160009054906101000a900473ffffffffffffffffffffffffffffffffffffffff1673ffffffffffffffffffffffffffffffffffffffff163373ffffffffffffffffffffffffffffffffffffffff16141561193557600160009054906101000a900473ffffffffffffffffffffffffffffffffffffffff166000806101000a81548173ffffffffffffffffffffffffffffffffffffffff021916908373ffffffffffffffffffffffffffffffffffffffff1602179055505b565b600e5481565b600f5481565b6000809054906101000a900473ffffffffffffffffffffffffffffffffffffffff1681565b6000678ac7230489e800008210156119a857611990600254600a61223e90919063ffffffff16565b65b5e620f480008115156119a057fe5b049050611b0d565b68015af1d78b58c400008210156119e7576119cf600254600a61223e90919063ffffffff16565b65a55cd80859008115156119df57fe5b049050611b0d565b6802b5e3af16b1880000821015611a2657611a0e600254600a61223e90919063ffffffff16565b6597951b10b100811515611a1e57fe5b049050611b0d565b68056bc75e2d63100000821015611a6557611a4d600254600a61223e90919063ffffffff16565b658bec191eed80811515611a5d57fe5b049050611b0d565b680d8d726b7177a80000821015611aa457611a8c600254600a61223e90919063ffffffff16565b6581ed85155500811515611a9c57fe5b049050611b0d565b681b1ae4d6e2ef500000821015611ae357611acb600254600a61223e90919063ffffffff16565b65794415c57880811515611adb57fe5b049050611b0d565b611af9600254600a61223e90919063ffffffff16565b655af3107a4000811515611b0957fe5b0490505b919050565b60008060008060009054906101000a900473ffffffffffffffffffffffffffffffffffffffff1673ffffffffffffffffffffffffffffffffffffffff163373ffffffffffffffffffffffffffffffffffffffff16141515611b7257600080fd5b600090505b600880549050811015611c09578473ffffffffffffffffffffffffffffffffffffffff16600882815481101515611baa57fe5b906000526020600020906002020160000160009054906101000a900473ffffffffffffffffffffffffffffffffffffffff1673ffffffffffffffffffffffffffffffffffffffff161415611bfc578091505b8080600101915050611b77565b83600883815481101515611c1957fe5b906000526020600020906002020160010181905550600090505b600880549050811015611c8257611c73600882815481101515611c5257fe5b906000526020600020906002020160010154846122c090919063ffffffff16565b92508080600101915050611c33565b6064611c9785856122c090919063ffffffff16565b11151515611ca157fe5b5050505050565b60115481565b600a5481565b60105481565b60125481565b600c5481565b601481815481101515611cd557fe5b90600052602060002090016000915090505481565b600160009054906101000a900473ffffffffffffffffffffffffffffffffffffffff1681565b611d186124f9565b6000809054906101000a900473ffffffffffffffffffffffffffffffffffffffff1673ffffffffffffffffffffffffffffffffffffffff163373ffffffffffffffffffffffffffffffffffffffff16141515611d7357600080fd5b84816000019073ffffffffffffffffffffffffffffffffffffffff16908173ffffffffffffffffffffffffffffffffffffffff1681525050838160200181815250508181606001818152505082816040018181525050806015600085815260200190815260200160002060008201518160000160006101000a81548173ffffffffffffffffffffffffffffffffffffffff021916908373ffffffffffffffffffffffffffffffffffffffff16021790555060208201518160010155604082015181600201556060820151816003015590505060148054806001018281611e599190612538565b9160005260206000209001600085909190915055505050505050565b60008060009054906101000a900473ffffffffffffffffffffffffffffffffffffffff1673ffffffffffffffffffffffffffffffffffffffff163373ffffffffffffffffffffffffffffffffffffffff16141515611ed257600080fd5b60105442111515611ee257600080fd5b6064611efa6007600b5461226f90919063ffffffff16565b811515611f0357fe5b049050600360009054906101000a900473ffffffffffffffffffffffffffffffffffffffff1673ffffffffffffffffffffffffffffffffffffffff16639c1f020a600760009054906101000a900473ffffffffffffffffffffffffffffffffffffffff16836040518363ffffffff167c0100000000000000000000000000000000000000000000000000000000028152600401808373ffffffffffffffffffffffffffffffffffffffff1673ffffffffffffffffffffffffffffffffffffffff16815260200182815260200192505050600060405180830381600087803b1515611fec57600080fd5b6102c65a03f11515611ffd57600080fd5b5050506120086122f7565b600360009054906101000a900473ffffffffffffffffffffffffffffffffffffffff1673ffffffffffffffffffffffffffffffffffffffff16638e835e796040518163ffffffff167c0100000000000000000000000000000000000000000000000000000000028152600401600060405180830381600087803b151561208d57600080fd5b6102c65a03f1151561209e57600080fd5b505050600360009054906101000a900473ffffffffffffffffffffffffffffffffffffffff1673ffffffffffffffffffffffffffffffffffffffff166308003f786040518163ffffffff167c0100000000000000000000000000000000000000000000000000000000028152600401600060405180830381600087803b151561212657600080fd5b6102c65a03f1151561213757600080fd5b50505050565b6000809054906101000a900473ffffffffffffffffffffffffffffffffffffffff1673ffffffffffffffffffffffffffffffffffffffff163373ffffffffffffffffffffffffffffffffffffffff1614151561219857600080fd5b600073ffffffffffffffffffffffffffffffffffffffff168173ffffffffffffffffffffffffffffffffffffffff16141515156121d457600080fd5b80600160006101000a81548173ffffffffffffffffffffffffffffffffffffffff021916908373ffffffffffffffffffffffffffffffffffffffff16021790555050565b600360009054906101000a900473ffffffffffffffffffffffffffffffffffffffff1681565b60008060008314156122535760019150612268565b82840a905083811015151561226457fe5b8091505b5092915050565b60008060008414806122815750600083145b1561228f57600091506122b9565b828402905060008414806122ad57508284828115156122aa57fe5b04145b15156122b557fe5b8091505b5092915050565b60008082840190508381101515156122d457fe5b8091505092915050565b60008282111515156122ec57fe5b818303905092915050565b60008060646123126003600b5461226f90919063ffffffff16565b81151561231b57fe5b049150600090505b60088054905081101561249357600360009054906101000a900473ffffffffffffffffffffffffffffffffffffffff1673ffffffffffffffffffffffffffffffffffffffff16639c1f020a60088381548110151561237d57fe5b906000526020600020906002020160000160009054906101000a900473ffffffffffffffffffffffffffffffffffffffff1660646123e46008868154811015156123c357fe5b9060005260206000209060020201600101548761226f90919063ffffffff16565b8115156123ed57fe5b046040518363ffffffff167c0100000000000000000000000000000000000000000000000000000000028152600401808373ffffffffffffffffffffffffffffffffffffffff1673ffffffffffffffffffffffffffffffffffffffff16815260200182815260200192505050600060405180830381600087803b151561247257600080fd5b6102c65a03f1151561248357600080fd5b5050508080600101915050612323565b5050565b6040805190810160405280600073ffffffffffffffffffffffffffffffffffffffff168152602001600081525090565b8154818355818115116124f4576002028160020283600052602060002091820191016124f39190612564565b5b505050565b608060405190810160405280600073ffffffffffffffffffffffffffffffffffffffff1681526020016000815260200160008152602001600081525090565b81548183558181151161255f5781836000526020600020918201910161255e91906125b2565b5b505050565b6125af91905b808211156125ab57600080820160006101000a81549073ffffffffffffffffffffffffffffffffffffffff021916905560018201600090555060020161256a565b5090565b90565b6125d491905b808211156125d05760008160009055506001016125b8565b5090565b905600a165627a7a72305820d7bf507fdbc6d0f7112430b4e2da545a4162b2996115e0e1a714d9603050a0610029",
  "source": "pragma solidity ^0.4.19;\n\nlibrary SafeMath { //standart library for uint\n  function mul(uint256 a, uint256 b) internal pure returns (uint256) {\n    if (a == 0 || b == 0){\n        return 0;\n    }\n    uint256 c = a * b;\n    assert(a == 0 || c / a == b);\n    return c;\n  }\n\n  function sub(uint256 a, uint256 b) internal pure returns (uint256) {\n    assert(b <= a);\n    return a - b;\n  }\n\n  function add(uint256 a, uint256 b) internal pure returns (uint256) {\n    uint256 c = a + b;\n    assert(c >= a);\n    return c;\n  }\n\n  function pow(uint256 a, uint256 b) internal pure returns (uint256){ //power function\n    if (b == 0){\n      return 1;\n    }\n    uint256 c = a**b;\n    assert (c >= a);\n    return c;\n  }\n}\n\n//standart contract to identify owner\ncontract Ownable {\n\n  address public owner;\n\n  address public newOwner;\n\n  modifier onlyOwner() {\n    require(msg.sender == owner);\n    _;\n  }\n\n  function Ownable() public {\n    owner = msg.sender;\n  }\n\n  function transferOwnership(address _newOwner) public onlyOwner {\n    require(_newOwner != address(0));\n    newOwner = _newOwner;\n  }\n\n  function acceptOwnership() public {\n    if (msg.sender == newOwner) {\n      owner = newOwner;\n    }\n  }\n}\n\n//Abstract Token contract\ncontract AinToken{\n  function setCrowdsaleContract (address) public;\n  function sendCrowdsaleTokens(address, uint256)  public;\n  function burnTokens() public;\n  function setIcoFinishedTrue () public;\n\n}\n\n//Crowdsale contract\ncontract Crowdsale is Ownable{\n\n  using SafeMath for uint;\n\n  uint decimals = 8;\n  // Token contract address\n  AinToken public token;\n\n  // Constructor\n  function Crowdsale(address _tokenAddress) public{\n    token = AinToken(_tokenAddress);\n    owner = msg.sender;\n\n    token.setCrowdsaleContract(this);\n  }\n  \n  address tokenDistribution1 = 0x1EECE4A2d1845319F5162221C6aaC885AF44bAA5;\n  address tokenDistribution2 = 0x37041A0b698B802C3A44447b5532d1C6Da05C0dE;\n\n  address teamAddress = 0x3E2017b68ec11e5c8733d38C4dFCb18a039D4C23;\n  address foundationAddress = 0x3E2017b68ec11e5c8733d38C4dFCb18a039D4C23;\n\n\n  struct AddressesStruct {\n    address addr;\n    uint percent;\n  }\n\n  AddressesStruct[] public bountyAddresses;\n  // AddressesStruct[] public teamAddresses;\n  \n  function addBountryAddress(address _address, uint _percent) public onlyOwner {\n    uint sum;\n    for(uint i = 0; i<bountyAddresses.length; i++){\n      require(bountyAddresses[i].addr != _address);\n      sum = sum.add(bountyAddresses[i].percent);\n    }\n    require(sum.add(_percent) <= 100);\n    AddressesStruct memory buffer;\n    buffer.addr = _address;\n    buffer.percent = _percent;\n\n    bountyAddresses.push(buffer);\n  }\n\n  function changeBountryAddressPercent(address _address, uint _percent) public onlyOwner {\n    uint sum;\n    uint bufferIndex;\n    for(uint i = 0; i<bountyAddresses.length; i++){\n      if(bountyAddresses[i].addr == _address){\n        bufferIndex = i;\n      }\n    }\n    bountyAddresses[bufferIndex].percent = _percent;\n\n    for(i = 0; i<bountyAddresses.length; i++){\n      sum = sum.add(bountyAddresses[i].percent);\n    }\n    assert(sum.add(_percent) <= 100);\n  }\n  \n  //Crowdsale variables\n  uint public preIcoTokensSold = 0;\n  uint public icoTokensSold = 0;\n  uint public tokensSold = 0;\n  uint public ethCollected = 0;\n\n  // Buy constants\n  // uint PreIcotokenPrice = 100000000000000/((uint)(10).pow(decimals));\n  // uint icoTokenPrice = 150015000000000/((uint)(10).pow(decimals));\n\n  // PreICO constants\n  uint public preIcoStart = 0; //ASAP\n  uint public preIcoFinish = 1523768400; // 04/15/2018 Midnight EST\n\n  // Ico constants\n  uint public icoStart = 1523768401; //04/15/2018 Midnight EST\n  uint public icoFinish = 1529038800; //06/15/2018 Midnight EST\n\n  // MaxCaps\n  uint public preIcoMaxCap = (uint)(57500000).mul((uint)(10).pow(decimals)); //23%\n  uint public icoMaxCap = (uint)(150000000).mul((uint)(10).pow(decimals));  //60%\n\n  //check is now ICO\n  function isPreIco(uint _time) public view returns (bool){\n    if((preIcoStart <= _time) && (_time <= preIcoFinish)){\n      return true;\n    }\n    return false;\n  }\n\n  //check is now ICO\n  function isIco(uint _time) public view returns (bool){\n    if((icoStart <= _time) && (_time <= icoFinish)){\n      return true;\n    }\n    return false;\n  }\n  \n\n  \n  //fallback function (when investor send ether to contract)\n  function() public payable{\n    require(isPreIco(now) || isIco(now));\n    \n    if(msg.data.length > 0){\n        buyTokensWithSalesFallback(msg.sender,bytesToUint(msg.data),msg.value);\n    }\n    else{\n    require(buy(msg.sender,msg.value, now)); //redirect to func buy\n    }\n  }\n\n\n  bool isIcoStarted = false;\n  //function buy Tokens\n  function buy(address _address, uint _value,uint _time) internal returns (bool){\n    uint tokensForSend = etherToTokens(_value,_time);\n    if (isPreIco(_time)){\n      require(preIcoTokensSold.add(tokensForSend) <= preIcoMaxCap);\n      preIcoTokensSold = preIcoTokensSold.add(tokensForSend);\n    }else{\n      if (!isIcoStarted){\n        icoMaxCap = icoMaxCap.add(preIcoMaxCap.sub(preIcoTokensSold));\n        isIcoStarted = true;\n      }\n      require(icoTokensSold.add(tokensForSend) <= icoMaxCap);\n      icoTokensSold = icoTokensSold.add(tokensForSend);\n    }\n    \n    tokensSold = tokensSold.add(tokensForSend);\n\n    token.sendCrowdsaleTokens(_address,tokensForSend);\n\n    tokenDistribution1.transfer(this.balance/2);\n    tokenDistribution2.transfer(this.balance);\n\n    return true;\n  }\n\n  //convert ether to tokens\n  function etherToTokens(uint _value, uint _time) public view returns(uint res) {\n    res = 0;\n    if(isPreIco(_time)){\n      res = _value/preIcoPriceAmount(_value);\n    }\n    if(isIco(_time)){\n      res = _value/icoPriceAmount(_value);\n    }\n  }\n\n  function endIco () public onlyOwner {\n    require(now > icoFinish);\n    \n    uint percent7 = tokensSold.mul((uint)(7))/100;\n\n    token.sendCrowdsaleTokens(foundationAddress,percent7);\n\n    tokenDistrib();\n    token.setIcoFinishedTrue();\n    token.burnTokens();\n  }\n\n  function tokenDistrib () internal {\n    uint percent3 = tokensSold.mul((uint)(3))/100;\n\n    for (uint i = 0; i < bountyAddresses.length; i++){\n      token.sendCrowdsaleTokens(bountyAddresses[i].addr, percent3.mul(bountyAddresses[i].percent)/100);\n    }\n  }\n\n  function preIcoPriceAmount(uint _value) public view returns(uint) {\n    if(_value < 10 ether){\n      return 0.0001 ether/(uint)(10).pow(decimals);\n    }\n    if(_value < 25 ether){\n      return 0.00009090909 ether/(uint)(10).pow(decimals);\n    }    \n    if(_value < 50 ether){\n      return 0.00008333333 ether/(uint)(10).pow(decimals);\n    }\n    if(_value < 100 ether){\n      return 0.00007692307 ether/(uint)(10).pow(decimals);\n    }\n    if(_value < 250 ether){\n      return 0.00007142857 ether/(uint)(10).pow(decimals);\n    }\n    if(_value < 500 ether){\n      return 0.00006666666 ether/(uint)(10).pow(decimals);\n    }\n    return 0.00005 ether/(uint)(10).pow(decimals);\n  }\n\n  function icoPriceAmount(uint _value) public view returns(uint) {\n    if(_value < 10 ether){\n      return 0.0002 ether/(uint)(10).pow(decimals);\n    }\n    if(_value < 25 ether){\n      return 0.00018181818 ether/(uint)(10).pow(decimals);\n    }    \n    if(_value < 50 ether){\n      return 0.00016666666 ether/(uint)(10).pow(decimals);\n    }\n    if(_value < 100 ether){\n      return 0.00015384615 ether/(uint)(10).pow(decimals);\n    }\n    if(_value < 250 ether){\n      return 0.00014285714 ether/(uint)(10).pow(decimals);\n    }\n    if(_value < 500 ether){\n      return 0.00013333333 ether/(uint)(10).pow(decimals);\n    }\n    return 0.0001 ether/(uint)(10).pow(decimals);\n  }\n\n  //Sales functions\n  function addSales(address _address, uint _commisson, uint _trackingNumber, uint _bonusToken) public onlyOwner{\n    SalesStruct memory buffer;\n    buffer.ethAddress = _address;\n    buffer.commisson = _commisson;\n    buffer.bonusToken = _bonusToken;\n    buffer.trackingNumber = _trackingNumber;\n    salesMap[_trackingNumber] = buffer;\n    \n    salesTrackingNumbers.push(_trackingNumber);\n  }\n  \n\n  struct SalesStruct {\n    address ethAddress;\n    uint commisson;\n    uint trackingNumber;\n    uint bonusToken;\n  }\n  \n  uint[] public salesTrackingNumbers;\n  mapping (uint => SalesStruct) salesMap;\n  \n\n  function showSales(uint _trackingNumber) public view returns(address,uint,uint) {\n    return (salesMap[_trackingNumber].ethAddress,salesMap[_trackingNumber].commisson,salesMap[_trackingNumber].bonusToken);\n  }\n  \n  function buyTokensWithSales(uint _trackingNumber) public payable {\n    require(salesMap[_trackingNumber].ethAddress != address(0));\n    \n    uint tokensForSend = etherToTokens(msg.value,now);\n    tokensForSend = tokensForSend.add(tokensForSend.mul(salesMap[_trackingNumber].bonusToken)/100);\n    token.sendCrowdsaleTokens(msg.sender,tokensForSend);\n    salesMap[_trackingNumber].ethAddress.transfer(msg.value.mul(salesMap[_trackingNumber].commisson)/100);\n\n    tokenDistribution1.transfer(this.balance/2);\n    tokenDistribution2.transfer(this.balance);\n  }\n\n  function buyTokensWithSalesFallback(address _address,uint _trackingNumber, uint _value) internal {\n     \n    require(salesMap[_trackingNumber].ethAddress != address(0));\n    \n    uint tokensForSend = etherToTokens(_value,now);\n    tokensForSend = tokensForSend.add(tokensForSend.mul(salesMap[_trackingNumber].bonusToken)/100);\n    token.sendCrowdsaleTokens(_address,tokensForSend);\n    salesMap[_trackingNumber].ethAddress.transfer(_value.mul(salesMap[_trackingNumber].commisson)/100);\n\n    tokenDistribution1.transfer(this.balance/2);\n    tokenDistribution2.transfer(this.balance);\n  }\n\n\nfunction bytesToUint(bytes _bytes) public pure returns(uint){\n    uint result = 0;\n    \n    for (uint i = 0; i<_bytes.length; i++){\n        uint buffer = (uint)(_bytes[_bytes.length-1-i]);\n\n        result +=((buffer/16*10)+(buffer%16))*((uint)(10).pow(2*i));\n    }\n    return result;\n}\n\n}\n",
  "sourcePath": "/home/romuch/Desktop/AINTruffle/contracts/AINCrowdsale.sol",
  "compiler": {
    "name": "solc",
    "version": "0.4.19+commit.c4cbbb05.Emscripten.clang"
  },
  "schemaVersion": "1.0.1",
  "updatedAt": "2018-03-05T12:19:06.242Z"
}